:100000000C9446000C9465000C9465000C946500FB
:100010000C9465000C9465000C9465000C946500CC
:100020000C9465000C9465000C9465000C946500BC
:100030000C9465000C940C010C9465000C94650004
:100040000C9465000C9465000C9465000C9465009C
:100050000C9465000C9465000C9465000C9465008C
:100060000C9465000C9465000C9465000C9465007C
:100070000C9465000C9465000C9465000C9465006C
:100080000C9465000C9465000C94650011241FBE4F
:10009000CFEFD0E4DEBFCDBF11E0A0E0B1E0EEE9EC
:1000A000F8E000E00BBF02C007900D92AA31B10743
:1000B000D9F721E0AAE1B1E001C01D92AA34B2074C
:1000C000E1F70E94A9020C944D040C940000CF9318
:1000D000DF9300D01F92CDB7DEB789837B836A831D
:1000E00089818A3031F48A819B81BC018DE00E9434
:1000F000670080EC90E0FC018081882F90E08072A6
:100100009927892BB1F386EC90E02981FC012083AB
:1001100080E090E00F900F900F90DF91CF910895C5
:10012000CF93DF9300D000D0CDB7DEB769837A8359
:100130008B839C8389819A81AB81BC8180930E01E2
:1001400090930F01A0931001B093110180910E01C3
:1001500090910F01A0911001B091110180931B01AA
:1001600090931C01A0931D01B0931E0100000F90FD
:100170000F900F900F90DF91CF910895CF93DF9361
:10018000CDB7DEB781E890E02BE0FC01208388E862
:1001900090E02DE730E0FC01318320838FE690E092
:1001A00022E0FC01208384E890E0FC0111821082AF
:1001B00080910E0190910F01A0911001B091110159
:1001C00080931B0190931C01A0931D01B0931E010D
:1001D0008FE590E02FE530E0F90120812068FC01F7
:1001E00020830000DF91CF910895CF93DF93CDB7A7
:1001F000DEB781E890E0FC0110820000DF91CF9132
:100200000895CF93DF93CDB7DEB781E080931A01D5
:100210000000DF91CF9108951F920F9200905F0030
:100220000F92112400905B000F922F933F934F93F6
:100230005F936F937F938F939F93AF93BF93EF934E
:10024000FF93CF93DF93CDB7DEB780911B019091E1
:100250001C01A0911D01B0911E010197A109B109D6
:1002600080931B0190931C01A0931D01B0931E016C
:1002700080911B0190911C01A0911D01B0911E0164
:10028000892B8A2B8B2B91F40E94010180910E0106
:1002900090910F01A0911001B091110180931B0169
:1002A00090931C01A0931D01B0931E010000DF91EB
:1002B000CF91FF91EF91BF91AF919F918F917F91DE
:1002C0006F915F914F913F912F910F9000925B0042
:1002D0000F9000925F000F901F901895CF93DF93BF
:1002E000CDB7DEB72C970FB6F894DEBF0FBECDBFEB
:1002F0006D837E838F83988729873A874B875C87B6
:100300008D819E81AF81B88529853A854B855C8535
:10031000BC01CD010E942B04DC01CB0189839A83AF
:10032000AB83BC8389819A81AB81BC81892B8A2B69
:100330008B2B29F489859A85AB85BC8511C089856D
:100340009A85AB85BC858D839E83AF83B887898171
:100350009A81AB81BC8189879A87AB87BC87D0CFD4
:10036000BC01CD012C960FB6F894DEBF0FBECDBFF9
:10037000DF91CF910895CF93DF9300D0CDB7DEB753
:100380009A83898389819A818130910599F182309C
:1003900091051CF4892B39F04CC082309105C1F0D5
:1003A0000397B9F146C080914301882329F081E089
:1003B00090E09A8389833FC080914901882329F086
:1003C00082E090E09A83898336C01A82198233C012
:1003D000809113018F3E49F080911301882F90E0A6
:1003E000880F991F81608093130183E090E09A83C6
:1003F000898321C0809113018E3F31F080911301D8
:10040000869580688093130183E090E09A838983C6
:1004100012C080914301882339F4809149018823D7
:1004200019F41A82198207C083E090E09A838983C5
:1004300002C01A82198289819A810F900F90DF91F0
:10044000CF910895CF93DF9300D0CDB7DEB79A83D5
:10045000898389819A818130910509F182309105E2
:100460001CF4892B39F047C08230910531F1039794
:1004700091F141C080914601882329F081E090E00C
:100480009A8389833BC080914001882329F082E0D0
:1004900090E09A83898332C01A8219822FC080919A
:1004A0001201803829F080911201880F8093120187
:1004B00083E090E09A83898321C08091120181308A
:1004C00029F08091120186958093120183E090E0DB
:1004D0009A83898313C080914601882339F48091DF
:1004E0004001882319F41A82198208C083E090E041
:1004F0009A83898303C01A821982000089819A81B4
:100500000F900F90DF91CF910895CF93DF9300D09C
:10051000CDB7DEB79A83898389819A81892B79F453
:1005200088E290E020911201FC0120838BE290E0B0
:1005300020911301FC0120831A82198203C01A82C0
:100540001982000089819A810F900F90DF91CF91DD
:1005500008950F931F93CF93DF93CDB7DEB72B97FB
:100560000FB6F894DEBF0FBECDBF87E290E02FEF4D
:10057000FC01208388E290E0FC0110828AE290E096
:100580002FEFFC0120838BE290E0FC01108281E2DE
:1005900090E0FC01108280E290E02FEFFC012083CC
:1005A00086E0E4E1F1E0DE01169601900D928A9575
:1005B000E1F783E090E09C838B838FEF8D838D81C7
:1005C00080931F0184E690E0A0E0B0E080932001DA
:1005D00090932101A0932201B093230180912001E7
:1005E00090912101A0912201B091230180932401D7
:1005F00090932501A0932601B09327018BEB91E006
:1006000090932901809328018D8180932A0184E6AB
:1006100090E0A0E0B0E080932B0190932C01A09398
:100620002D01B0932E0180912B0190912C01A0916E
:100630002D01B0912E0180932F0190933001A09352
:100640003101B093320182E292E0909334018093C1
:1006500033018D818093350182E390E0A0E0B0E02A
:100660008093360190933701A0933801B0933901FC
:100670008091360190913701A0913801B0913901F4
:1006800080933A0190933B01A0933C01B0933D01CC
:1006900085E892E090933F0180933E0161E070E035
:1006A00080E090E00E9490000E94BE0080E290E016
:1006B000FC018081882F90E08170992721E0892BAF
:1006C00009F020E0822F8093430180E290E0FC015A
:1006D0008081809582708093490180E290E0FC01E6
:1006E0008081809584708093460180E290E0FC01D7
:1006F000808180958870809340011A8219829BC006
:1007000089819A81880F991F9E012F5F3F4F820F29
:10071000931F0596FC0180819181FC012581368122
:100720004781508589819A81880F991FBE016F5F2B
:100730007F4F860F971F0596FC0180819181FC01F8
:1007400081819281A381B481281739074A075B0709
:1007500009F045C089819A81880F991F9E012F5FFA
:100760003F4F820F931F0596FC0100811181898103
:100770009A81880F991F9E012F5F3F4F820F931F11
:100780000596FC0180819181FC012185328589815A
:100790009A81880F991FAE014F5F5F4F840F951F9D
:1007A0000596FC0180819181FC018081082E000C5E
:1007B000990BF9010995F801808389819A81880F45
:1007C000991F9E012F5F3F4F820F931F0596FC01DB
:1007D00080819181FC0115821682178210868981A1
:1007E0009A81880F991F9E012F5F3F4F820F931FA1
:1007F0000596FC012081318189819A81880F991F9A
:10080000AE014F5F5F4F840F951F0596FC018081FD
:100810009181FC0185819681A781B0850196A11DFA
:10082000B11DF90185839683A783B08789819A8159
:1008300001969A83898329813A818B819C8128172B
:10084000390708F45DCF000080911A018823E1F395
:1008500010921A012BCFA1E21A2EAA1BBB1BFD017D
:100860000DC0AA1FBB1FEE1FFF1FA217B307E4078F
:10087000F50720F0A21BB30BE40BF50B661F771FE7
:10088000881F991F1A9469F76095709580959095C7
:0E0890009B01AC01BD01CF010895F894FFCF8C
:10089E0000000002000000006700000000000100E0
:0A08AE00000080E01F012A0135015F
:00000001FF
