:100000000C9446000C9465000C9465000C946500FB
:100010000C9465000C9465000C9465000C946500CC
:100020000C9465000C9465000C9465000C946500BC
:100030000C9465000C940C010C9465000C94650004
:100040000C9465000C9465000C9465000C9465009C
:100050000C9465000C9465000C9465000C9465008C
:100060000C9465000C9465000C9465000C9465007C
:100070000C9465000C9465000C9465000C9465006C
:100080000C9465000C9465000C94650011241FBE4F
:10009000CFEFD0E4DEBFCDBF11E0A0E0B1E0E0E7FC
:1000A000F7E000E00BBF02C007900D92A232B1074B
:1000B000D9F721E0A2E2B1E001C01D92A335B20759
:1000C000E1F70E9412020C94B6030C940000CF9347
:1000D000DF9300D01F92CDB7DEB789837B836A831D
:1000E00089818A3031F48A819B81BC018DE00E9434
:1000F000670080EC90E0FC018081882F90E08072A6
:100100009927892BB1F386EC90E02981FC012083AB
:1001100080E090E00F900F900F90DF91CF910895C5
:10012000CF93DF9300D000D0CDB7DEB769837A8359
:100130008B839C8389819A81AB81BC8180930E01E2
:1001400090930F01A0931001B093110180910E01C3
:1001500090910F01A0911001B091110180932301A2
:1001600090932401A0932501B093260100000F90E5
:100170000F900F900F90DF91CF910895CF93DF9361
:10018000CDB7DEB781E890E02BE0FC01208388E862
:1001900090E02DE730E0FC01318320838FE690E092
:1001A00022E0FC01208384E890E0FC0111821082AF
:1001B00080910E0190910F01A0911001B091110159
:1001C0008093230190932401A0932501B0932601ED
:1001D0008FE590E02FE530E0F90120812068FC01F7
:1001E00020830000DF91CF910895CF93DF93CDB7A7
:1001F000DEB781E890E0FC0110820000DF91CF9132
:100200000895CF93DF93CDB7DEB781E080932201CD
:100210000000DF91CF9108951F920F9200905F0030
:100220000F92112400905B000F922F933F934F93F6
:100230005F936F937F938F939F93AF93BF93EF934E
:10024000FF93CF93DF93CDB7DEB7809123019091D9
:100250002401A0912501B09126010197A109B109BE
:100260008093230190932401A0932501B09326014C
:100270008091230190912401A0912501B091260144
:10028000892B8A2B8B2B91F40E94010180910E0106
:1002900090910F01A0911001B09111018093230161
:1002A00090932401A0932501B09326010000DF91D3
:1002B000CF91FF91EF91BF91AF919F918F917F91DE
:1002C0006F915F914F913F912F910F9000925B0042
:1002D0000F9000925F000F901F901895CF93DF93BF
:1002E000CDB7DEB72C970FB6F894DEBF0FBECDBFEB
:1002F0006D837E838F83988729873A874B875C87B6
:100300008D819E81AF81B88529853A854B855C8535
:10031000BC01CD010E949403DC01CB0189839A8347
:10032000AB83BC8389819A81AB81BC81892B8A2B69
:100330008B2B29F489859A85AB85BC8511C089856D
:100340009A85AB85BC858D839E83AF83B887898171
:100350009A81AB81BC8189879A87AB87BC87D0CFD4
:10036000BC01CD012C960FB6F894DEBF0FBECDBFF9
:10037000DF91CF910895CF93DF9300D0CDB7DEB753
:100380009A83898389819A810F900F90DF91CF9111
:100390000895CF93DF9300D0CDB7DEB79A838983DA
:1003A00089819A810F900F90DF91CF910895CF931B
:1003B000DF9300D0CDB7DEB79A83898389819A8194
:1003C000892B31F588E290E020912701222F30E03F
:1003D0002E5E3E4FF9012081FC0120838BE290E0EC
:1003E00020912701222F30E0295E3E4FF901208124
:1003F000FC012083809127018F5F809327018091EA
:100400002701853010F0109227011A82198203C04B
:100410001A821982000089819A810F900F90DF91D2
:10042000CF9108950F931F93CF93DF93CDB7DEB78E
:100430002B970FB6F894DEBF0FBECDBF87E290E0DA
:100440002FEFFC01208388E290E0FC0110828AE219
:1004500090E02FEFFC0120838BE290E0FC01108202
:1004600081E290E0FC01108280E290E02FEFFC013D
:10047000208386E0ECE1F1E0DE01169601900D921A
:100480008A95E1F783E090E09C838B838FEF8D83E7
:100490008D818093280184E690E0A0E0B0E0809315
:1004A000290190932A01A0932B01B0932C018091F4
:1004B000290190912A01A0912B01B0912C018093E8
:1004C0002D0190932E01A0932F01B09330018BEB5F
:1004D00091E090933201809331018D8180933301BB
:1004E00084E690E0A0E0B0E0809334019093350181
:1004F000A0933601B093370180913401909135017A
:10050000A0913601B0913701809338019093390161
:10051000A0933A01B0933B0189EC91E090933D01A7
:1005200080933C018D8180933E0181E090E0A0E0CA
:10053000B0E080933F0190934001A0934101B093BC
:10054000420180913F0190914001A0914101B09101
:1005500042018093430190934401A0934501B093DD
:10056000460187ED91E0909348018093470161E057
:1005700070E080E090E00E9490000E94BE0080E267
:1005800090E0FC018081882F90E08170992721E024
:10059000892B09F020E0822F80934C0180E290E0CB
:1005A000FC018081809582708093520180E290E00E
:1005B000FC0180818095847080934F0180E290E0FF
:1005C000FC01808180958870809349011A8219828C
:1005D0009BC089819A81880F991F9E012F5F3F4F91
:1005E000820F931F0596FC0180819181FC0125817A
:1005F00036814781508589819A81880F991FBE0174
:100600006F5F7F4F860F971F0596FC018081918158
:10061000FC0181819281A381B481281739074A079F
:100620005B0709F045C089819A81880F991F9E0157
:100630002F5F3F4F820F931F0596FC0100811181B0
:1006400089819A81880F991F9E012F5F3F4F820FEA
:10065000931F0596FC0180819181FC0121853285E3
:1006600089819A81880F991FAE014F5F5F4F840F78
:10067000951F0596FC0180819181FC018081082EE7
:10068000000C990BF9010995F801808389819A8101
:10069000880F991F9E012F5F3F4F820F931F059672
:1006A000FC0180819181FC011582168217821086DF
:1006B00089819A81880F991F9E012F5F3F4F820F7A
:1006C000931F0596FC012081318189819A81880FD1
:1006D000991FAE014F5F5F4F840F951F0596FC0178
:1006E00080819181FC0185819681A781B0850196E9
:1006F000A11DB11DF90185839683A783B0878981E8
:100700009A8101969A83898329813A818B819C8180
:100710002817390708F45DCF000080912201882353
:10072000E1F3109222012BCFA1E21A2EAA1BBB1BD0
:10073000FD010DC0AA1FBB1FEE1FFF1FA217B307AD
:10074000E407F50720F0A21BB30BE40BF50B661FC3
:10075000771F881F991F1A9469F760957095809587
:1007600090959B01AC01BD01CF010895F894FFCF96
:10077000000000020000000067000000000001000F
:100780000000003C243C00FEFDFBF7EF2801330194
:020790003E0128
:00000001FF
