:100000000C9446000C9465000C9465000C946500FB
:100010000C9465000C9465000C9465000C946500CC
:100020000C9465000C9465000C9465000C946500BC
:100030000C9465000C940C010C9465000C94650004
:100040000C9465000C9465000C9465000C9465009C
:100050000C9465000C9465000C9465000C9465008C
:100060000C9465000C9465000C9465000C9465007C
:100070000C9465000C9465000C9465000C9465006C
:100080000C9465000C9465000C94650011241FBE4F
:10009000CFEFD0E4DEBFCDBF11E0A0E0B1E0EEE5F0
:1000A000F6E000E00BBF02C007900D92A431B1074B
:1000B000D9F721E0A4E1B1E001C01D92A432B2075A
:1000C000E1F70E9408020C942D030C940000CF93DA
:1000D000DF9300D01F92CDB7DEB789837B836A831D
:1000E00089818A3031F48A819B81BC018DE00E9434
:1000F000670080EC90E0FC018081882F90E08072A6
:100100009927892BB1F386EC90E02981FC012083AB
:1001100080E090E00F900F900F90DF91CF910895C5
:10012000CF93DF9300D000D0CDB7DEB769837A8359
:100130008B839C8389819A81AB81BC8180930E01E2
:1001400090930F01A0931001B093110180910E01C3
:1001500090910F01A0911001B091110180931501B0
:1001600090931601A0931701B093180100000F900F
:100170000F900F900F90DF91CF910895CF93DF9361
:10018000CDB7DEB781E890E02BE0FC01208388E862
:1001900090E02DE730E0FC01318320838FE690E092
:1001A00022E0FC01208384E890E0FC0111821082AF
:1001B00080910E0190910F01A0911001B091110159
:1001C0008093150190931601A0931701B093180125
:1001D0008FE590E02FE530E0F90120812068FC01F7
:1001E00020830000DF91CF910895CF93DF93CDB7A7
:1001F000DEB781E890E0FC0110820000DF91CF9132
:100200000895CF93DF93CDB7DEB781E080931401DB
:100210000000DF91CF9108951F920F9200905F0030
:100220000F92112400905B000F922F933F934F93F6
:100230005F936F937F938F939F93AF93BF93EF934E
:10024000FF93CF93DF93CDB7DEB7809115019091E7
:100250001601A0911701B09118010197A109B109E8
:100260008093150190931601A0931701B093180184
:100270008091150190911601A0911701B09118017C
:10028000892B8A2B8B2B91F40E94010180910E0106
:1002900090910F01A0911001B0911101809315016F
:1002A00090931601A0931701B09318010000DF91FD
:1002B000CF91FF91EF91BF91AF919F918F917F91DE
:1002C0006F915F914F913F912F910F9000925B0042
:1002D0000F9000925F000F901F901895CF93DF93BF
:1002E000CDB7DEB72C970FB6F894DEBF0FBECDBFEB
:1002F0006D837E838F83988729873A874B875C87B6
:100300008D819E81AF81B88529853A854B855C8535
:10031000BC01CD010E940B03DC01CB0189839A83D0
:10032000AB83BC8389819A81AB81BC81892B8A2B69
:100330008B2B29F489859A85AB85BC8511C089856D
:100340009A85AB85BC858D839E83AF83B887898171
:100350009A81AB81BC8189879A87AB87BC87D0CFD4
:10036000BC01CD012C960FB6F894DEBF0FBECDBFF9
:10037000DF91CF910895CF93DF9300D0CDB7DEB753
:100380009A83898389819A81892B19F01A8219822B
:1003900001C0000089819A81892B09F026C08091D3
:1003A00012018F3E59F480911301813039F480E8B5
:1003B000809313018EEF8093120116C08091130178
:1003C000813069F480E88093130180911201882FB5
:1003D00090E0880F991F81608093120105C0809181
:1003E0001301869580931301000088E290E020912C
:1003F0001301FC0120838BE290E020911201FC01AB
:10040000208389819A810F900F90DF91CF91089579
:100410000F931F93CF93DF93CDB7DEB727970FB618
:10042000F894DEBF0FBECDBF87E290E02FEFFC0156
:10043000208388E290E0FC0110828AE290E02FEFB6
:10044000FC0120838BE290E0FC01108289E191E0C5
:100450009F838E8381E090E09C838B838FEF8D83DD
:100460008D818093190184E690E0A0E0B0E0809354
:100470001A0190931B01A0931C01B0931D01809160
:100480001A0190911B01A0911C01B0911D01809354
:100490001E0190931F01A0932001B09321018BEBCB
:1004A00091E0909323018093220161E070E080E06D
:1004B00090E00E9490000E94BE001A8219829BC0A8
:1004C00089819A81880F991F9E012F5F3F4F820F6C
:1004D000931F0596FC0180819181FC012581368165
:1004E0004781508589819A81880F991FBE016F5F6E
:1004F0007F4F860F971F0596FC0180819181FC013B
:1005000081819281A381B481281739074A075B074B
:1005100009F045C089819A81880F991F9E012F5F3C
:100520003F4F820F931F0596FC0100811181898145
:100530009A81880F991F9E012F5F3F4F820F931F53
:100540000596FC0180819181FC012185328589819C
:100550009A81880F991FAE014F5F5F4F840F951FDF
:100560000596FC0180819181FC018081082E000CA0
:10057000990BF9010995F801808389819A81880F87
:10058000991F9E012F5F3F4F820F931F0596FC011D
:1005900080819181FC0115821682178210868981E3
:1005A0009A81880F991F9E012F5F3F4F820F931FE3
:1005B0000596FC012081318189819A81880F991FDC
:1005C000AE014F5F5F4F840F951F0596FC01808140
:1005D0009181FC0185819681A781B0850196A11D3D
:1005E000B11DF90185839683A783B08789819A819C
:1005F00001969A83898329813A818B819C8128176E
:10060000390708F45DCF0000809114018823E1F3DD
:100610001092140152CFA1E21A2EAA1BBB1BFD019E
:100620000DC0AA1FBB1FEE1FFF1FA217B307E407D1
:10063000F50720F0A21BB30BE40BF50B661F771F29
:10064000881F991F1A9469F7609570958095909509
:0E0650009B01AC01BD01CF010895F894FFCFCE
:10065E000000000200000000670000000000010022
:04066E000000FE800A
:00000001FF
