:100000000C9446000C9465000C9465000C946500FB
:100010000C9465000C9465000C9465000C946500CC
:100020000C9465000C9465000C9465000C946500BC
:100030000C9465000C940C010C9465000C94650004
:100040000C9465000C9465000C9465000C9465009C
:100050000C9465000C9465000C9465000C9465008C
:100060000C9465000C9465000C9465000C9465007C
:100070000C9465000C9465000C9465000C9465006C
:100080000C9465000C9465000C94650011241FBE4F
:10009000CFEFD0E4DEBFCDBF11E0A0E0B1E0EEEFE6
:1000A000FAE000E00BBF02C007900D92AC31B1073F
:1000B000D9F721E0ACE1B1E001C01D92A134B20753
:1000C000E1F70E94FF030C947D050C940000CF9390
:1000D000DF9300D01F92CDB7DEB789837B836A831D
:1000E00089818A3031F48A819B81BC018DE00E9434
:1000F000670080EC90E0FC018081882F90E08072A6
:100100009927892BB1F386EC90E02981FC012083AB
:1001100080E090E00F900F900F90DF91CF910895C5
:10012000CF93DF9300D000D0CDB7DEB769837A8359
:100130008B839C8389819A81AB81BC8180930E01E2
:1001400090930F01A0931001B093110180910E01C3
:1001500090910F01A0911001B091110180931D01A8
:1001600090931E01A0931F01B093200100000F90F7
:100170000F900F900F90DF91CF910895CF93DF9361
:10018000CDB7DEB781E890E02BE0FC01208388E862
:1001900090E02DE730E0FC01318320838FE690E092
:1001A00022E0FC01208384E890E0FC0111821082AF
:1001B00080910E0190910F01A0911001B091110159
:1001C00080931D0190931E01A0931F01B093200105
:1001D0008FE590E02FE530E0F90120812068FC01F7
:1001E00020830000DF91CF910895CF93DF93CDB7A7
:1001F000DEB781E890E0FC0110820000DF91CF9132
:100200000895CF93DF93CDB7DEB781E080931C01D3
:100210000000DF91CF9108951F920F9200905F0030
:100220000F92112400905B000F922F933F934F93F6
:100230005F936F937F938F939F93AF93BF93EF934E
:10024000FF93CF93DF93CDB7DEB780911D019091DF
:100250001E01A0911F01B09120010197A109B109D0
:1002600080931D0190931E01A0931F01B093200164
:1002700080911D0190911E01A0911F01B09120015C
:10028000892B8A2B8B2B91F40E94010180910E0106
:1002900090910F01A0911001B091110180931D0167
:1002A00090931E01A0931F01B09320010000DF91E5
:1002B000CF91FF91EF91BF91AF919F918F917F91DE
:1002C0006F915F914F913F912F910F9000925B0042
:1002D0000F9000925F000F901F901895CF93DF93BF
:1002E000CDB7DEB72C970FB6F894DEBF0FBECDBFEB
:1002F0006D837E838F83988729873A874B875C87B6
:100300008D819E81AF81B88529853A854B855C8535
:10031000BC01CD010E945B05DC01CB0189839A837E
:10032000AB83BC8389819A81AB81BC81892B8A2B69
:100330008B2B29F489859A85AB85BC8511C089856D
:100340009A85AB85BC858D839E83AF83B887898171
:100350009A81AB81BC8189879A87AB87BC87D0CFD4
:10036000BC01CD012C960FB6F894DEBF0FBECDBFF9
:10037000DF91CF910895CF93DF9300D000D0CDB718
:10038000DEB78B836C838B8182958F70282F8B8156
:10039000882F90E082959295907F9827807F98276C
:1003A000822B8B838B81882F90E08C7C992795956D
:1003B000879595958795282F8B81882F90E083735B
:1003C0009927880F991F880F991F822B8B838B8108
:1003D000882F90E08A7A992795958795282F8B8189
:1003E000882F90E085759927880F991F822B8B8322
:1003F0008C818130C1F51A82198227C088E290E091
:1004000028E0FC01208388E290E028E230E0F90156
:100410002081422F2B81222F30E0098002C03595A8
:1004200027950A94E2F72170242BFC01208388E2AF
:1004300090E028E230E0F90120812260FC01208375
:1004400089819A8101969A83898389819A81089703
:10045000ACF288E290E028E230E0F90120812460EB
:10046000FC0120833AC08C818230B9F51A8219824E
:1004700027C08BE290E028E0FC0120838BE290E033
:100480002BE230E0F9012081422F2B81222F30E036
:10049000098002C0359527950A94E2F72170242B34
:1004A000FC0120838BE290E02BE230E0F901208117
:1004B0002260FC01208389819A8101969A83898335
:1004C00089819A810897ACF28BE290E02BE230E0D0
:1004D000F90120812460FC01208300000F900F901F
:1004E0000F900F90DF91CF910895CF93DF93CDB709
:1004F000DEB72E970FB6F894DEBF0FBECDBF9E8736
:100500008D878D859E8582309105E1F1833091053F
:1005100034F4009781F0019709F465C02AC1843052
:10052000910509F4CBC0843091050CF48AC005977D
:1005300009F405C11EC180913A01882329F081E0A8
:1005400090E09E878D8717C180914001882329F014
:1005500082E090E09E878D870EC180913D018823C7
:1005600029F083E090E09E878D8705C18091390155
:10057000882329F084E090E09E878D87FCC01E864A
:100580001D86F9C080911601882319F081E08093BF
:10059000220180912201882319F0109222011EC0AD
:1005A00084E090E09A83898312C089819A810197BF
:1005B0008E5E9E4FFC01208189819A818E5E9E4FC6
:1005C000FC01208389819A8101979A83898389819B
:1005D0009A81181619064CF31092120185E090E0EA
:1005E0009E878D87C8C080911201882319F081E011
:1005F0008093220180912201882319F01092220118
:100600001BC01C821B8212C08B819C8101968E5E56
:100610009E4FFC0120818B819C818E5E9E4FFC0150
:1006200020838B819C8101969C838B838B819C8111
:10063000049754F31092160185E090E09E878D8711
:100640009AC01E821D8210C08D819E818E5E9E4F3B
:10065000FC01808188231CF481E0809322018D813C
:100660009E8101969E838D838D819E81059764F383
:1006700080912201882319F0109222011AC0188655
:100680001F8213C08F8198858E5E9E4FFC018081F2
:10069000282F220F8F8198858E5E9E4FFC0120832C
:1006A0008F819885019698878F838F81988505978C
:1006B0004CF385E090E09E878D875DC01A86198691
:1006C00014C089859A858E5E9E4FFC018081882F9B
:1006D00090E081709927892B19F081E080932201A5
:1006E00089859A8501969A87898789859A8505974C
:1006F00044F380912201882319F0109222011AC03C
:100700001C861B8613C08B859C858E5E9E4FFC01CC
:100710008081282F26958B859C858E5E9E4FFC01BF
:1007200020838B859C8501969C878B878B859C85F8
:1007300005974CF385E090E09E878D871CC0109252
:10074000220180913A01882379F480914001882325
:1007500059F480913D01882339F48091390188232F
:1007600019F41E861D8607C085E090E09E878D8760
:1007700002C01E861D868D859E852E960FB6F89426
:10078000DEBF0FBECDBFDF91CF910895CF93DF9332
:1007900000D0CDB7DEB79A83898389819A81892B6E
:1007A00021F580912101882F90E08E5E9E4FFC0103
:1007B000808161E00E94BB0180912101882F90E03F
:1007C000895E9E4FFC01808162E00E94BB018091A6
:1007D00021018F5F8093210180912101853010F0EC
:1007E000109221011A82198203C01A821982000014
:1007F00089819A810F900F90DF91CF9108950F9387
:100800001F93CF93DF93CDB7DEB729970FB6F89438
:10081000DEBF0FBECDBF87E290E02FEFFC0120834B
:1008200088E290E0FC0110828AE290E02FEFFC0168
:1008300020838BE290E0FC01108281E290E0FC01D9
:10084000108280E290E02FEFFC01208383E291E0B0
:100850009F838E838EE291E09987888782E090E083
:100860009C838B838FEF8D838D818093230184E61E
:1008700090E0A0E0B0E08093240190932501A09344
:100880002601B09327018091240190912501A09128
:100890002601B09127018093280190932901A0930C
:1008A0002A01B0932B0185E792E090932D0180936C
:1008B0002C018D8180932E0181E090E0A0E0B0E0DA
:1008C00080932F0190933001A0933101B0933201B6
:1008D00080912F0190913001A0913101B0913201AE
:1008E0008093330190933401A0933501B093360186
:1008F00086EC93E0909338018093370161E070E0DB
:1009000080E090E00E9490000E94BE0080E290E0B3
:10091000FC018081882F90E08170992721E0892B4C
:1009200009F020E0822F80933A0180E290E0FC0100
:100930008081809582708093400180E290E0FC018C
:1009400080818095847080933D0180E290E0FC017D
:10095000808180958870809339011A8219829BC0AA
:1009600089819A81880F991F9E012F5F3F4F820FC7
:10097000931F0596FC0180819181FC0125813681C0
:100980004781508589819A81880F991FBE016F5FC9
:100990007F4F860F971F0596FC0180819181FC0196
:1009A00081819281A381B481281739074A075B07A7
:1009B00009F045C089819A81880F991F9E012F5F98
:1009C0003F4F820F931F0596FC01008111818981A1
:1009D0009A81880F991F9E012F5F3F4F820F931FAF
:1009E0000596FC0180819181FC01218532858981F8
:1009F0009A81880F991FAE014F5F5F4F840F951F3B
:100A00000596FC0180819181FC018081082E000CFB
:100A1000990BF9010995F801808389819A81880FE2
:100A2000991F9E012F5F3F4F820F931F0596FC0178
:100A300080819181FC01158216821782108689813E
:100A40009A81880F991F9E012F5F3F4F820F931F3E
:100A50000596FC012081318189819A81880F991F37
:100A6000AE014F5F5F4F840F951F0596FC0180819B
:100A70009181FC0185819681A781B0850196A11D98
:100A8000B11DF90185839683A783B08789819A81F7
:100A900001969A83898329813A818B819C812817C9
:100AA000390708F45DCF000080911C018823E1F331
:100AB00010921C012BCFA1E21A2EAA1BBB1BFD0119
:100AC0000DC0AA1FBB1FEE1FFF1FA217B307E4072D
:100AD000F50720F0A21BB30BE40BF50B661F771F85
:100AE000881F991F1A9469F7609570958095909565
:0E0AF0009B01AC01BD01CF010895F894FFCF2A
:100AFE00000000020000000067000000000001007E
:0C0B0E000000003C243C00FEFDFBF7EF63
:00000001FF
